:100000000C9434000C943E000C943E000C943E0082
:100010000C943E000C943E000C943E000C943E0068
:100020000C943E000C943E000C943E000C943E0058
:100030000C943E000C943E000C943E000C943E0048
:100040000C943E000C943E000C943E000C943E0038
:100050000C943E000C943E000C943E000C943E0028
:100060000C943E000C943E0011241FBECFEFD4E050
:10007000DEBFCDBF0E9440000C9456000C940000DF
:100080000E9451002A9A42E020E931E085B184279C
:1000900085B988E893E1F9013197F1F70197D9F72C
:1000A000F5CF219A229A29982A980895F894FFCF9B
:00000001FF
